{"abi":[{"type":"function","name":"addConditionReport","inputs":[{"name":"_itemId","type":"uint256","internalType":"uint256"},{"name":"_conditionHash","type":"string","internalType":"string"}],"outputs":[],"stateMutability":"nonpayable"},{"type":"function","name":"getItemDetails","inputs":[{"name":"_itemId","type":"uint256","internalType":"uint256"}],"outputs":[{"name":"item","type":"tuple","internalType":"struct MarketplaceV2.Item","components":[{"name":"id","type":"uint256","internalType":"uint256"},{"name":"name","type":"string","internalType":"string"},{"name":"price","type":"uint256","internalType":"uint256"},{"name":"seller","type":"address","internalType":"address payable"},{"name":"owner","type":"address","internalType":"address"},{"name":"isSold","type":"bool","internalType":"bool"},{"name":"isResale","type":"bool","internalType":"bool"},{"name":"ipfsMetadataHash","type":"string","internalType":"string"},{"name":"listedAt","type":"uint256","internalType":"uint256"}]},{"name":"ownershipCount","type":"uint256","internalType":"uint256"},{"name":"originalSeller","type":"address","internalType":"address"}],"stateMutability":"view"},{"type":"function","name":"getItemsByOwner","inputs":[{"name":"_owner","type":"address","internalType":"address"}],"outputs":[{"name":"","type":"uint256[]","internalType":"uint256[]"}],"stateMutability":"view"},{"type":"function","name":"getListedItems","inputs":[],"outputs":[{"name":"","type":"uint256[]","internalType":"uint256[]"}],"stateMutability":"view"},{"type":"function","name":"getOwnershipTimeline","inputs":[{"name":"_itemId","type":"uint256","internalType":"uint256"}],"outputs":[{"name":"","type":"tuple[]","internalType":"struct MarketplaceV2.OwnershipRecord[]","components":[{"name":"owner","type":"address","internalType":"address"},{"name":"timestamp","type":"uint256","internalType":"uint256"},{"name":"conditionHash","type":"string","internalType":"string"},{"name":"price","type":"uint256","internalType":"uint256"}]}],"stateMutability":"view"},{"type":"function","name":"itemCount","inputs":[],"outputs":[{"name":"","type":"uint256","internalType":"uint256"}],"stateMutability":"view"},{"type":"function","name":"items","inputs":[{"name":"","type":"uint256","internalType":"uint256"}],"outputs":[{"name":"id","type":"uint256","internalType":"uint256"},{"name":"name","type":"string","internalType":"string"},{"name":"price","type":"uint256","internalType":"uint256"},{"name":"seller","type":"address","internalType":"address payable"},{"name":"owner","type":"address","internalType":"address"},{"name":"isSold","type":"bool","internalType":"bool"},{"name":"isResale","type":"bool","internalType":"bool"},{"name":"ipfsMetadataHash","type":"string","internalType":"string"},{"name":"listedAt","type":"uint256","internalType":"uint256"}],"stateMutability":"view"},{"type":"function","name":"listItem","inputs":[{"name":"_name","type":"string","internalType":"string"},{"name":"_price","type":"uint256","internalType":"uint256"},{"name":"_ipfsMetadataHash","type":"string","internalType":"string"}],"outputs":[],"stateMutability":"nonpayable"},{"type":"function","name":"ownedItems","inputs":[{"name":"","type":"address","internalType":"address"},{"name":"","type":"uint256","internalType":"uint256"}],"outputs":[{"name":"","type":"uint256","internalType":"uint256"}],"stateMutability":"view"},{"type":"function","name":"ownershipTimeline","inputs":[{"name":"","type":"uint256","internalType":"uint256"},{"name":"","type":"uint256","internalType":"uint256"}],"outputs":[{"name":"owner","type":"address","internalType":"address"},{"name":"timestamp","type":"uint256","internalType":"uint256"},{"name":"conditionHash","type":"string","internalType":"string"},{"name":"price","type":"uint256","internalType":"uint256"}],"stateMutability":"view"},{"type":"function","name":"purchaseItem","inputs":[{"name":"_itemId","type":"uint256","internalType":"uint256"}],"outputs":[],"stateMutability":"payable"},{"type":"function","name":"resellItem","inputs":[{"name":"_itemId","type":"uint256","internalType":"uint256"},{"name":"_newPrice","type":"uint256","internalType":"uint256"}],"outputs":[],"stateMutability":"nonpayable"},{"type":"function","name":"transferItem","inputs":[{"name":"_itemId","type":"uint256","internalType":"uint256"},{"name":"_newOwner","type":"address","internalType":"address"}],"outputs":[],"stateMutability":"nonpayable"},{"type":"event","name":"ConditionReported","inputs":[{"name":"itemId","type":"uint256","indexed":true,"internalType":"uint256"},{"name":"owner","type":"address","indexed":true,"internalType":"address"},{"name":"conditionHash","type":"string","indexed":false,"internalType":"string"},{"name":"timestamp","type":"uint256","indexed":false,"internalType":"uint256"}],"anonymous":false},{"type":"event","name":"ItemListed","inputs":[{"name":"itemId","type":"uint256","indexed":true,"internalType":"uint256"},{"name":"seller","type":"address","indexed":true,"internalType":"address"},{"name":"price","type":"uint256","indexed":false,"internalType":"uint256"},{"name":"ipfsHash","type":"string","indexed":false,"internalType":"string"},{"name":"timestamp","type":"uint256","indexed":false,"internalType":"uint256"}],"anonymous":false},{"type":"event","name":"ItemResold","inputs":[{"name":"itemId","type":"uint256","indexed":true,"internalType":"uint256"},{"name":"newSeller","type":"address","indexed":true,"internalType":"address"},{"name":"newPrice","type":"uint256","indexed":false,"internalType":"uint256"},{"name":"timestamp","type":"uint256","indexed":false,"internalType":"uint256"}],"anonymous":false},{"type":"event","name":"ItemSold","inputs":[{"name":"itemId","type":"uint256","indexed":true,"internalType":"uint256"},{"name":"buyer","type":"address","indexed":true,"internalType":"address"},{"name":"seller","type":"address","indexed":true,"internalType":"address"},{"name":"price","type":"uint256","indexed":false,"internalType":"uint256"},{"name":"timestamp","type":"uint256","indexed":false,"internalType":"uint256"}],"anonymous":false},{"type":"event","name":"ItemTransferred","inputs":[{"name":"itemId","type":"uint256","indexed":true,"internalType":"uint256"},{"name":"from","type":"address","indexed":true,"internalType":"address"},{"name":"to","type":"address","indexed":true,"internalType":"address"},{"name":"timestamp","type":"uint256","indexed":false,"internalType":"uint256"}],"anonymous":false}],"bytecode":{"object":"0x6080604052348015600e575f5ffd5b506132948061001c5f395ff3fe6080604052600436106100c1575f3560e01c80638d2500141161007e578063caf5069011610058578063caf50690146102b4578063d38ea5bf146102de578063e2e99c19146102fa578063f9eccb3b14610322576100c1565b80638d25001414610220578063a422910114610248578063bfb231d214610270576100c1565b80632c67a8e5146100c557806342846534146101015780636bfb0d011461013d57806373004ca01461016757806375005d19146101a557806381e33af1146101e1575b5f5ffd5b3480156100d0575f5ffd5b506100eb60048036038101906100e69190611f63565b61034a565b6040516100f8919061204e565b60405180910390f35b34801561010c575f5ffd5b5061012760048036038101906101229190612098565b6103dd565b60405161013491906120e5565b60405180910390f35b348015610148575f5ffd5b50610151610408565b60405161015e91906120e5565b60405180910390f35b348015610172575f5ffd5b5061018d600480360381019061018891906120fe565b61040d565b60405161019c939291906122ba565b60405180910390f35b3480156101b0575f5ffd5b506101cb60048036038101906101c691906120fe565b610713565b6040516101d89190612411565b60405180910390f35b3480156101ec575f5ffd5b5061020760048036038101906102029190612431565b6108c7565b60405161021794939291906124b7565b60405180910390f35b34801561022b575f5ffd5b506102466004803603810190610241919061262d565b6109b2565b005b348015610253575f5ffd5b5061026e600480360381019061026991906126b5565b610dd3565b005b34801561027b575f5ffd5b50610296600480360381019061029191906120fe565b6111cf565b6040516102ab99989796959493929190612711565b60405180910390f35b3480156102bf575f5ffd5b506102c861137d565b6040516102d5919061204e565b60405180910390f35b6102f860048036038101906102f391906120fe565b6114aa565b005b348015610305575f5ffd5b50610320600480360381019061031b91906127aa565b6118f4565b005b34801561032d575f5ffd5b5061034860048036038101906103439190612431565b611b28565b005b606060025f8373ffffffffffffffffffffffffffffffffffffffff1673ffffffffffffffffffffffffffffffffffffffff1681526020019081526020015f208054806020026020016040519081016040528092919081815260200182805480156103d157602002820191905f5260205f20905b8154815260200190600101908083116103bd575b50505050509050919050565b6002602052815f5260405f2081815481106103f6575f80fd5b905f5260205f20015f91509150505481565b5f5481565b610415611e83565b5f5f5f8411801561042757505f548411155b610466576040517f08c379a000000000000000000000000000000000000000000000000000000000815260040161045d9061284e565b60405180910390fd5b60015f8581526020019081526020015f20604051806101200160405290815f820154815260200160018201805461049c90612899565b80601f01602080910402602001604051908101604052809291908181526020018280546104c890612899565b80156105135780601f106104ea57610100808354040283529160200191610513565b820191905f5260205f20905b8154815290600101906020018083116104f657829003601f168201915b5050505050815260200160028201548152602001600382015f9054906101000a900473ffffffffffffffffffffffffffffffffffffffff1673ffffffffffffffffffffffffffffffffffffffff1673ffffffffffffffffffffffffffffffffffffffff168152602001600482015f9054906101000a900473ffffffffffffffffffffffffffffffffffffffff1673ffffffffffffffffffffffffffffffffffffffff1673ffffffffffffffffffffffffffffffffffffffff1681526020016004820160149054906101000a900460ff161515151581526020016004820160159054906101000a900460ff1615151515815260200160058201805461061690612899565b80601f016020809104026020016040519081016040528092919081815260200182805461064290612899565b801561068d5780601f106106645761010080835404028352916020019161068d565b820191905f5260205f20905b81548152906001019060200180831161067057829003601f168201915b50505050508152602001600682015481525050925060035f8581526020019081526020015f2080549050915060035f8581526020019081526020015f205f815481106106dc576106db6128c9565b5b905f5260205f2090600402015f015f9054906101000a900473ffffffffffffffffffffffffffffffffffffffff1690509193909250565b60605f8211801561072557505f548211155b610764576040517f08c379a000000000000000000000000000000000000000000000000000000000815260040161075b9061284e565b60405180910390fd5b60035f8381526020019081526020015f20805480602002602001604051908101604052809291908181526020015f905b828210156108bc578382905f5260205f2090600402016040518060800160405290815f82015f9054906101000a900473ffffffffffffffffffffffffffffffffffffffff1673ffffffffffffffffffffffffffffffffffffffff1673ffffffffffffffffffffffffffffffffffffffff1681526020016001820154815260200160028201805461082390612899565b80601f016020809104026020016040519081016040528092919081815260200182805461084f90612899565b801561089a5780601f106108715761010080835404028352916020019161089a565b820191905f5260205f20905b81548152906001019060200180831161087d57829003601f168201915b5050505050815260200160038201548152505081526020019060010190610794565b505050509050919050565b6003602052815f5260405f2081815481106108e0575f80fd5b905f5260205f2090600402015f9150915050805f015f9054906101000a900473ffffffffffffffffffffffffffffffffffffffff169080600101549080600201805461092b90612899565b80601f016020809104026020016040519081016040528092919081815260200182805461095790612899565b80156109a25780601f10610979576101008083540402835291602001916109a2565b820191905f5260205f20905b81548152906001019060200180831161098557829003601f168201915b5050505050908060030154905084565b5f82116109f4576040517f08c379a00000000000000000000000000000000000000000000000000000000081526004016109eb90612940565b60405180910390fd5b5f835111610a37576040517f08c379a0000000000000000000000000000000000000000000000000000000008152600401610a2e906129a8565b60405180910390fd5b5f815111610a7a576040517f08c379a0000000000000000000000000000000000000000000000000000000008152600401610a7190612a10565b60405180910390fd5b5f5f815480929190610a8b90612a5b565b91905055506040518061012001604052805f5481526020018481526020018381526020013373ffffffffffffffffffffffffffffffffffffffff1681526020013373ffffffffffffffffffffffffffffffffffffffff1681526020015f151581526020015f151581526020018281526020014281525060015f5f5481526020019081526020015f205f820151815f01556020820151816001019081610b309190612c42565b50604082015181600201556060820151816003015f6101000a81548173ffffffffffffffffffffffffffffffffffffffff021916908373ffffffffffffffffffffffffffffffffffffffff1602179055506080820151816004015f6101000a81548173ffffffffffffffffffffffffffffffffffffffff021916908373ffffffffffffffffffffffffffffffffffffffff16021790555060a08201518160040160146101000a81548160ff02191690831515021790555060c08201518160040160156101000a81548160ff02191690831515021790555060e0820151816005019081610c1c9190612c42565b50610100820151816006015590505060025f3373ffffffffffffffffffffffffffffffffffffffff1673ffffffffffffffffffffffffffffffffffffffff1681526020019081526020015f205f54908060018154018082558091505060019003905f5260205f20015f909190919091505560035f5f5481526020019081526020015f2060405180608001604052803373ffffffffffffffffffffffffffffffffffffffff16815260200142815260200160405180602001604052805f815250815260200184815250908060018154018082558091505060019003905f5260205f2090600402015f909190919091505f820151815f015f6101000a81548173ffffffffffffffffffffffffffffffffffffffff021916908373ffffffffffffffffffffffffffffffffffffffff160217905550602082015181600101556040820151816002019081610d6d9190612c42565b506060820151816003015550503373ffffffffffffffffffffffffffffffffffffffff165f547ff1ff930e2c5abc860771068ce16550b24f5c79a5e6ba7464274a17ec022f810d848442604051610dc693929190612d11565b60405180910390a3505050565b5f60015f8481526020019081526020015f2090505f83118015610df757505f548311155b610e36576040517f08c379a0000000000000000000000000000000000000000000000000000000008152600401610e2d9061284e565b60405180910390fd5b3373ffffffffffffffffffffffffffffffffffffffff16816004015f9054906101000a900473ffffffffffffffffffffffffffffffffffffffff1673ffffffffffffffffffffffffffffffffffffffff1614610ec7576040517f08c379a0000000000000000000000000000000000000000000000000000000008152600401610ebe90612d97565b60405180910390fd5b5f73ffffffffffffffffffffffffffffffffffffffff168273ffffffffffffffffffffffffffffffffffffffff1603610f35576040517f08c379a0000000000000000000000000000000000000000000000000000000008152600401610f2c90612dff565b60405180910390fd5b3373ffffffffffffffffffffffffffffffffffffffff168273ffffffffffffffffffffffffffffffffffffffff1603610fa3576040517f08c379a0000000000000000000000000000000000000000000000000000000008152600401610f9a90612e67565b60405180910390fd5b5f816004015f9054906101000a900473ffffffffffffffffffffffffffffffffffffffff16905082826004015f6101000a81548173ffffffffffffffffffffffffffffffffffffffff021916908373ffffffffffffffffffffffffffffffffffffffff1602179055506110168185611d89565b60025f8473ffffffffffffffffffffffffffffffffffffffff1673ffffffffffffffffffffffffffffffffffffffff1681526020019081526020015f2084908060018154018082558091505060019003905f5260205f20015f909190919091505560035f8581526020019081526020015f2060405180608001604052808573ffffffffffffffffffffffffffffffffffffffff16815260200142815260200160405180602001604052805f81525081526020015f815250908060018154018082558091505060019003905f5260205f2090600402015f909190919091505f820151815f015f6101000a81548173ffffffffffffffffffffffffffffffffffffffff021916908373ffffffffffffffffffffffffffffffffffffffff1602179055506020820151816001015560408201518160020190816111569190612c42565b506060820151816003015550508273ffffffffffffffffffffffffffffffffffffffff163373ffffffffffffffffffffffffffffffffffffffff16857fa878aff89f953a37d6f49daca7e239720fc2b866aa8741ac66a8117c0de02ef8426040516111c191906120e5565b60405180910390a450505050565b6001602052805f5260405f205f91509050805f0154908060010180546111f490612899565b80601f016020809104026020016040519081016040528092919081815260200182805461122090612899565b801561126b5780601f106112425761010080835404028352916020019161126b565b820191905f5260205f20905b81548152906001019060200180831161124e57829003601f168201915b505050505090806002015490806003015f9054906101000a900473ffffffffffffffffffffffffffffffffffffffff1690806004015f9054906101000a900473ffffffffffffffffffffffffffffffffffffffff16908060040160149054906101000a900460ff16908060040160159054906101000a900460ff16908060050180546112f690612899565b80601f016020809104026020016040519081016040528092919081815260200182805461132290612899565b801561136d5780601f106113445761010080835404028352916020019161136d565b820191905f5260205f20905b81548152906001019060200180831161135057829003601f168201915b5050505050908060060154905089565b60605f5f90505f600190505b5f5481116113d95760015f8281526020019081526020015f2060040160149054906101000a900460ff166113c65781806113c290612a5b565b9250505b80806113d190612a5b565b915050611389565b505f8167ffffffffffffffff8111156113f5576113f4612509565b5b6040519080825280602002602001820160405280156114235781602001602082028036833780820191505090505b5090505f5f90505f600190505b5f5481116114a05760015f8281526020019081526020015f2060040160149054906101000a900460ff1661148d5780838381518110611472576114716128c9565b5b602002602001018181525050818061148990612a5b565b9250505b808061149890612a5b565b915050611430565b5081935050505090565b5f60015f8381526020019081526020015f2090505f821180156114ce57505f548211155b61150d576040517f08c379a00000000000000000000000000000000000000000000000000000000081526004016115049061284e565b60405180910390fd5b8060040160149054906101000a900460ff161561155f576040517f08c379a000000000000000000000000000000000000000000000000000000000815260040161155690612ecf565b60405180910390fd5b806002015434146115a5576040517f08c379a000000000000000000000000000000000000000000000000000000000815260040161159c90612f37565b60405180910390fd5b806004015f9054906101000a900473ffffffffffffffffffffffffffffffffffffffff1673ffffffffffffffffffffffffffffffffffffffff163373ffffffffffffffffffffffffffffffffffffffff1603611636576040517f08c379a000000000000000000000000000000000000000000000000000000000815260040161162d90612f9f565b60405180910390fd5b5f816004015f9054906101000a900473ffffffffffffffffffffffffffffffffffffffff1690505f826003015f9054906101000a900473ffffffffffffffffffffffffffffffffffffffff1690508073ffffffffffffffffffffffffffffffffffffffff166108fc3490811502906040515f60405180830381858888f193505050501580156116c7573d5f5f3e3d5ffd5b5033836004015f6101000a81548173ffffffffffffffffffffffffffffffffffffffff021916908373ffffffffffffffffffffffffffffffffffffffff16021790555060018360040160146101000a81548160ff0219169083151502179055506117318285611d89565b60025f3373ffffffffffffffffffffffffffffffffffffffff1673ffffffffffffffffffffffffffffffffffffffff1681526020019081526020015f2084908060018154018082558091505060019003905f5260205f20015f909190919091505560035f8581526020019081526020015f2060405180608001604052803373ffffffffffffffffffffffffffffffffffffffff16815260200142815260200160405180602001604052805f81525081526020018560020154815250908060018154018082558091505060019003905f5260205f2090600402015f909190919091505f820151815f015f6101000a81548173ffffffffffffffffffffffffffffffffffffffff021916908373ffffffffffffffffffffffffffffffffffffffff1602179055506020820151816001015560408201518160020190816118759190612c42565b506060820151816003015550508073ffffffffffffffffffffffffffffffffffffffff163373ffffffffffffffffffffffffffffffffffffffff16857fd2b8648ec6ff6bd9ed10162d6ec424ae792c12820a475e8ef52f23fd7da4f1eb8660020154426040516118e6929190612fbd565b60405180910390a450505050565b5f60015f8481526020019081526020015f2090505f8311801561191857505f548311155b611957576040517f08c379a000000000000000000000000000000000000000000000000000000000815260040161194e9061284e565b60405180910390fd5b3373ffffffffffffffffffffffffffffffffffffffff16816004015f9054906101000a900473ffffffffffffffffffffffffffffffffffffffff1673ffffffffffffffffffffffffffffffffffffffff16146119e8576040517f08c379a00000000000000000000000000000000000000000000000000000000081526004016119df90613054565b60405180910390fd5b5f825111611a2b576040517f08c379a0000000000000000000000000000000000000000000000000000000008152600401611a22906130bc565b60405180910390fd5b5f60035f8581526020019081526020015f208054905090505f8111611a85576040517f08c379a0000000000000000000000000000000000000000000000000000000008152600401611a7c90613124565b60405180910390fd5b8260035f8681526020019081526020015f20600183611aa49190613142565b81548110611ab557611ab46128c9565b5b905f5260205f2090600402016002019081611ad09190612c42565b503373ffffffffffffffffffffffffffffffffffffffff16847ffda7b1dc4d49d993c16e86763b333d0191f3d6dc81e168c0e7024ad556dfe7988542604051611b1a929190613175565b60405180910390a350505050565b5f60015f8481526020019081526020015f2090505f83118015611b4c57505f548311155b611b8b576040517f08c379a0000000000000000000000000000000000000000000000000000000008152600401611b829061284e565b60405180910390fd5b3373ffffffffffffffffffffffffffffffffffffffff16816004015f9054906101000a900473ffffffffffffffffffffffffffffffffffffffff1673ffffffffffffffffffffffffffffffffffffffff1614611c1c576040517f08c379a0000000000000000000000000000000000000000000000000000000008152600401611c1390612d97565b60405180910390fd5b5f8211611c5e576040517f08c379a0000000000000000000000000000000000000000000000000000000008152600401611c5590612940565b60405180910390fd5b8060040160149054906101000a900460ff16611caf576040517f08c379a0000000000000000000000000000000000000000000000000000000008152600401611ca690613213565b60405180910390fd5b81816002018190555033816003015f6101000a81548173ffffffffffffffffffffffffffffffffffffffff021916908373ffffffffffffffffffffffffffffffffffffffff1602179055505f8160040160146101000a81548160ff02191690831515021790555060018160040160156101000a81548160ff0219169083151502179055503373ffffffffffffffffffffffffffffffffffffffff16837fc239b41f70891f6da6ff2dc935315f5ef76728082945a7f326cb254949255a928442604051611d7c929190612fbd565b60405180910390a3505050565b5f60025f8473ffffffffffffffffffffffffffffffffffffffff1673ffffffffffffffffffffffffffffffffffffffff1681526020019081526020015f2090505f5f90505b8180549050811015611e7d5782828281548110611dee57611ded6128c9565b5b905f5260205f20015403611e70578160018380549050611e0e9190613142565b81548110611e1f57611e1e6128c9565b5b905f5260205f200154828281548110611e3b57611e3a6128c9565b5b905f5260205f20018190555081805480611e5857611e57613231565b5b600190038181905f5260205f20015f90559055611e7d565b8080600101915050611dce565b50505050565b6040518061012001604052805f8152602001606081526020015f81526020015f73ffffffffffffffffffffffffffffffffffffffff1681526020015f73ffffffffffffffffffffffffffffffffffffffff1681526020015f151581526020015f15158152602001606081526020015f81525090565b5f604051905090565b5f5ffd5b5f5ffd5b5f73ffffffffffffffffffffffffffffffffffffffff82169050919050565b5f611f3282611f09565b9050919050565b611f4281611f28565b8114611f4c575f5ffd5b50565b5f81359050611f5d81611f39565b92915050565b5f60208284031215611f7857611f77611f01565b5b5f611f8584828501611f4f565b91505092915050565b5f81519050919050565b5f82825260208201905092915050565b5f819050602082019050919050565b5f819050919050565b611fc981611fb7565b82525050565b5f611fda8383611fc0565b60208301905092915050565b5f602082019050919050565b5f611ffc82611f8e565b6120068185611f98565b935061201183611fa8565b805f5b838110156120415781516120288882611fcf565b975061203383611fe6565b925050600181019050612014565b5085935050505092915050565b5f6020820190508181035f8301526120668184611ff2565b905092915050565b61207781611fb7565b8114612081575f5ffd5b50565b5f813590506120928161206e565b92915050565b5f5f604083850312156120ae576120ad611f01565b5b5f6120bb85828601611f4f565b92505060206120cc85828601612084565b9150509250929050565b6120df81611fb7565b82525050565b5f6020820190506120f85f8301846120d6565b92915050565b5f6020828403121561211357612112611f01565b5b5f61212084828501612084565b91505092915050565b5f81519050919050565b5f82825260208201905092915050565b8281835e5f83830152505050565b5f601f19601f8301169050919050565b5f61216b82612129565b6121758185612133565b9350612185818560208601612143565b61218e81612151565b840191505092915050565b5f6121a382611f09565b9050919050565b6121b381612199565b82525050565b6121c281611f28565b82525050565b5f8115159050919050565b6121dc816121c8565b82525050565b5f61012083015f8301516121f85f860182611fc0565b50602083015184820360208601526122108282612161565b91505060408301516122256040860182611fc0565b50606083015161223860608601826121aa565b50608083015161224b60808601826121b9565b5060a083015161225e60a08601826121d3565b5060c083015161227160c08601826121d3565b5060e083015184820360e08601526122898282612161565b9150506101008301516122a0610100860182611fc0565b508091505092915050565b6122b481611f28565b82525050565b5f6060820190508181035f8301526122d281866121e2565b90506122e160208301856120d6565b6122ee60408301846122ab565b949350505050565b5f81519050919050565b5f82825260208201905092915050565b5f819050602082019050919050565b5f608083015f8301516123345f8601826121b9565b5060208301516123476020860182611fc0565b506040830151848203604086015261235f8282612161565b91505060608301516123746060860182611fc0565b508091505092915050565b5f61238a838361231f565b905092915050565b5f602082019050919050565b5f6123a8826122f6565b6123b28185612300565b9350836020820285016123c485612310565b805f5b858110156123ff57848403895281516123e0858261237f565b94506123eb83612392565b925060208a019950506001810190506123c7565b50829750879550505050505092915050565b5f6020820190508181035f830152612429818461239e565b905092915050565b5f5f6040838503121561244757612446611f01565b5b5f61245485828601612084565b925050602061246585828601612084565b9150509250929050565b5f82825260208201905092915050565b5f61248982612129565b612493818561246f565b93506124a3818560208601612143565b6124ac81612151565b840191505092915050565b5f6080820190506124ca5f8301876122ab565b6124d760208301866120d6565b81810360408301526124e9818561247f565b90506124f860608301846120d6565b95945050505050565b5f5ffd5b5f5ffd5b7f4e487b71000000000000000000000000000000000000000000000000000000005f52604160045260245ffd5b61253f82612151565b810181811067ffffffffffffffff8211171561255e5761255d612509565b5b80604052505050565b5f612570611ef8565b905061257c8282612536565b919050565b5f67ffffffffffffffff82111561259b5761259a612509565b5b6125a482612151565b9050602081019050919050565b828183375f83830152505050565b5f6125d16125cc84612581565b612567565b9050828152602081018484840111156125ed576125ec612505565b5b6125f88482856125b1565b509392505050565b5f82601f83011261261457612613612501565b5b81356126248482602086016125bf565b91505092915050565b5f5f5f6060848603121561264457612643611f01565b5b5f84013567ffffffffffffffff81111561266157612660611f05565b5b61266d86828701612600565b935050602061267e86828701612084565b925050604084013567ffffffffffffffff81111561269f5761269e611f05565b5b6126ab86828701612600565b9150509250925092565b5f5f604083850312156126cb576126ca611f01565b5b5f6126d885828601612084565b92505060206126e985828601611f4f565b9150509250929050565b6126fc81612199565b82525050565b61270b816121c8565b82525050565b5f610120820190506127255f83018c6120d6565b8181036020830152612737818b61247f565b9050612746604083018a6120d6565b61275360608301896126f3565b61276060808301886122ab565b61276d60a0830187612702565b61277a60c0830186612702565b81810360e083015261278c818561247f565b905061279c6101008301846120d6565b9a9950505050505050505050565b5f5f604083850312156127c0576127bf611f01565b5b5f6127cd85828601612084565b925050602083013567ffffffffffffffff8111156127ee576127ed611f05565b5b6127fa85828601612600565b9150509250929050565b7f4974656d20646f6573206e6f74206578697374000000000000000000000000005f82015250565b5f61283860138361246f565b915061284382612804565b602082019050919050565b5f6020820190508181035f8301526128658161282c565b9050919050565b7f4e487b71000000000000000000000000000000000000000000000000000000005f52602260045260245ffd5b5f60028204905060018216806128b057607f821691505b6020821081036128c3576128c261286c565b5b50919050565b7f4e487b71000000000000000000000000000000000000000000000000000000005f52603260045260245ffd5b7f5072696365206d7573742062652067726561746572207468616e207a65726f005f82015250565b5f61292a601f8361246f565b9150612935826128f6565b602082019050919050565b5f6020820190508181035f8301526129578161291e565b9050919050565b7f4e616d652063616e6e6f7420626520656d7074790000000000000000000000005f82015250565b5f61299260148361246f565b915061299d8261295e565b602082019050919050565b5f6020820190508181035f8301526129bf81612986565b9050919050565b7f4950465320686173682063616e6e6f7420626520656d707479000000000000005f82015250565b5f6129fa60198361246f565b9150612a05826129c6565b602082019050919050565b5f6020820190508181035f830152612a27816129ee565b9050919050565b7f4e487b71000000000000000000000000000000000000000000000000000000005f52601160045260245ffd5b5f612a6582611fb7565b91507fffffffffffffffffffffffffffffffffffffffffffffffffffffffffffffffff8203612a9757612a96612a2e565b5b600182019050919050565b5f819050815f5260205f209050919050565b5f6020601f8301049050919050565b5f82821b905092915050565b5f60088302612afe7fffffffffffffffffffffffffffffffffffffffffffffffffffffffffffffffff82612ac3565b612b088683612ac3565b95508019841693508086168417925050509392505050565b5f819050919050565b5f612b43612b3e612b3984611fb7565b612b20565b611fb7565b9050919050565b5f819050919050565b612b5c83612b29565b612b70612b6882612b4a565b848454612acf565b825550505050565b5f5f905090565b612b87612b78565b612b92818484612b53565b505050565b5b81811015612bb557612baa5f82612b7f565b600181019050612b98565b5050565b601f821115612bfa57612bcb81612aa2565b612bd484612ab4565b81016020851015612be3578190505b612bf7612bef85612ab4565b830182612b97565b50505b505050565b5f82821c905092915050565b5f612c1a5f1984600802612bff565b1980831691505092915050565b5f612c328383612c0b565b9150826002028217905092915050565b612c4b82612129565b67ffffffffffffffff811115612c6457612c63612509565b5b612c6e8254612899565b612c79828285612bb9565b5f60209050601f831160018114612caa575f8415612c98578287015190505b612ca28582612c27565b865550612d09565b601f198416612cb886612aa2565b5f5b82811015612cdf57848901518255600182019150602085019450602081019050612cba565b86831015612cfc5784890151612cf8601f891682612c0b565b8355505b6001600288020188555050505b505050505050565b5f606082019050612d245f8301866120d6565b8181036020830152612d36818561247f565b9050612d4560408301846120d6565b949350505050565b7f596f7520617265206e6f7420746865206f776e657200000000000000000000005f82015250565b5f612d8160158361246f565b9150612d8c82612d4d565b602082019050919050565b5f6020820190508181035f830152612dae81612d75565b9050919050565b7f496e76616c6964206e6577206f776e65722061646472657373000000000000005f82015250565b5f612de960198361246f565b9150612df482612db5565b602082019050919050565b5f6020820190508181035f830152612e1681612ddd565b9050919050565b7f43616e6e6f74207472616e7366657220746f20796f757273656c6600000000005f82015250565b5f612e51601b8361246f565b9150612e5c82612e1d565b602082019050919050565b5f6020820190508181035f830152612e7e81612e45565b9050919050565b7f4974656d20616c726561647920736f6c640000000000000000000000000000005f82015250565b5f612eb960118361246f565b9150612ec482612e85565b602082019050919050565b5f6020820190508181035f830152612ee681612ead565b9050919050565b7f496e636f727265637420707269636500000000000000000000000000000000005f82015250565b5f612f21600f8361246f565b9150612f2c82612eed565b602082019050919050565b5f6020820190508181035f830152612f4e81612f15565b9050919050565b7f43616e6e6f742062757920796f7572206f776e206974656d00000000000000005f82015250565b5f612f8960188361246f565b9150612f9482612f55565b602082019050919050565b5f6020820190508181035f830152612fb681612f7d565b9050919050565b5f604082019050612fd05f8301856120d6565b612fdd60208301846120d6565b9392505050565b7f4f6e6c79206f776e65722063616e2061646420636f6e646974696f6e207265705f8201527f6f72740000000000000000000000000000000000000000000000000000000000602082015250565b5f61303e60238361246f565b915061304982612fe4565b604082019050919050565b5f6020820190508181035f83015261306b81613032565b9050919050565b7f436f6e646974696f6e20686173682063616e6e6f7420626520656d70747900005f82015250565b5f6130a6601e8361246f565b91506130b182613072565b602082019050919050565b5f6020820190508181035f8301526130d38161309a565b9050919050565b7f4e6f206f776e657273686970207265636f726420666f756e64000000000000005f82015250565b5f61310e60198361246f565b9150613119826130da565b602082019050919050565b5f6020820190508181035f83015261313b81613102565b9050919050565b5f61314c82611fb7565b915061315783611fb7565b925082820390508181111561316f5761316e612a2e565b5b92915050565b5f6040820190508181035f83015261318d818561247f565b905061319c60208301846120d6565b9392505050565b7f4974656d206d75737420626520707572636861736564206265666f72652072655f8201527f73656c6c696e6700000000000000000000000000000000000000000000000000602082015250565b5f6131fd60278361246f565b9150613208826131a3565b604082019050919050565b5f6020820190508181035f83015261322a816131f1565b9050919050565b7f4e487b71000000000000000000000000000000000000000000000000000000005f52603160045260245ffdfea26469706673582212200477391413036f2992d1b35e93dd99291bf574e4287f8678df60b79a472df6e664736f6c634300081e0033","linkReferences":{}},"methodIdentifiers":{"addConditionReport(uint256,string)":"e2e99c19","getItemDetails(uint256)":"73004ca0","getItemsByOwner(address)":"2c67a8e5","getListedItems()":"caf50690","getOwnershipTimeline(uint256)":"75005d19","itemCount()":"6bfb0d01","items(uint256)":"bfb231d2","listItem(string,uint256,string)":"8d250014","ownedItems(address,uint256)":"42846534","ownershipTimeline(uint256,uint256)":"81e33af1","purchaseItem(uint256)":"d38ea5bf","resellItem(uint256,uint256)":"f9eccb3b","transferItem(uint256,address)":"a4229101"},"id":23}