{"abi":[{"type":"function","name":"getItemsByOwner","inputs":[{"name":"_owner","type":"address","internalType":"address"}],"outputs":[{"name":"","type":"uint256[]","internalType":"uint256[]"}],"stateMutability":"view"},{"type":"function","name":"itemCount","inputs":[],"outputs":[{"name":"","type":"uint256","internalType":"uint256"}],"stateMutability":"view"},{"type":"function","name":"items","inputs":[{"name":"","type":"uint256","internalType":"uint256"}],"outputs":[{"name":"id","type":"uint256","internalType":"uint256"},{"name":"name","type":"string","internalType":"string"},{"name":"price","type":"uint256","internalType":"uint256"},{"name":"seller","type":"address","internalType":"address payable"},{"name":"owner","type":"address","internalType":"address"},{"name":"isSold","type":"bool","internalType":"bool"}],"stateMutability":"view"},{"type":"function","name":"listItem","inputs":[{"name":"_name","type":"string","internalType":"string"},{"name":"_price","type":"uint256","internalType":"uint256"}],"outputs":[],"stateMutability":"nonpayable"},{"type":"function","name":"ownedItems","inputs":[{"name":"","type":"address","internalType":"address"},{"name":"","type":"uint256","internalType":"uint256"}],"outputs":[{"name":"","type":"uint256","internalType":"uint256"}],"stateMutability":"view"},{"type":"function","name":"purchaseItem","inputs":[{"name":"_id","type":"uint256","internalType":"uint256"}],"outputs":[],"stateMutability":"payable"},{"type":"function","name":"transferItem","inputs":[{"name":"_id","type":"uint256","internalType":"uint256"},{"name":"_to","type":"address","internalType":"address"}],"outputs":[],"stateMutability":"nonpayable"},{"type":"event","name":"ItemListed","inputs":[{"name":"id","type":"uint256","indexed":false,"internalType":"uint256"},{"name":"name","type":"string","indexed":false,"internalType":"string"},{"name":"price","type":"uint256","indexed":false,"internalType":"uint256"},{"name":"seller","type":"address","indexed":false,"internalType":"address"}],"anonymous":false},{"type":"event","name":"ItemRemovedFromSale","inputs":[{"name":"id","type":"uint256","indexed":false,"internalType":"uint256"},{"name":"seller","type":"address","indexed":false,"internalType":"address"}],"anonymous":false},{"type":"event","name":"ItemSold","inputs":[{"name":"id","type":"uint256","indexed":false,"internalType":"uint256"},{"name":"seller","type":"address","indexed":false,"internalType":"address"},{"name":"buyer","type":"address","indexed":false,"internalType":"address"},{"name":"price","type":"uint256","indexed":false,"internalType":"uint256"}],"anonymous":false},{"type":"event","name":"ItemTransferred","inputs":[{"name":"id","type":"uint256","indexed":false,"internalType":"uint256"},{"name":"from","type":"address","indexed":false,"internalType":"address"},{"name":"to","type":"address","indexed":false,"internalType":"address"}],"anonymous":false}],"bytecode":{"object":"0x60806040525f5f553480156011575f5ffd5b506118028061001f5f395ff3fe60806040526004361061006f575f3560e01c80638511c9371161004d5780638511c93714610115578063a42291011461013d578063bfb231d214610165578063d38ea5bf146101a65761006f565b80632c67a8e51461007357806342846534146100af5780636bfb0d01146100eb575b5f5ffd5b34801561007e575f5ffd5b5061009960048036038101906100949190610bd2565b6101c2565b6040516100a69190610cbd565b60405180910390f35b3480156100ba575f5ffd5b506100d560048036038101906100d09190610d07565b610255565b6040516100e29190610d54565b60405180910390f35b3480156100f6575f5ffd5b506100ff610280565b60405161010c9190610d54565b60405180910390f35b348015610120575f5ffd5b5061013b60048036038101906101369190610ea9565b610285565b005b348015610148575f5ffd5b50610163600480360381019061015e9190610f03565b6104c6565b005b348015610170575f5ffd5b5061018b60048036038101906101869190610f41565b6105ca565b60405161019d96959493929190611015565b60405180910390f35b6101c060048036038101906101bb9190610f41565b6106d3565b005b606060025f8373ffffffffffffffffffffffffffffffffffffffff1673ffffffffffffffffffffffffffffffffffffffff1681526020019081526020015f2080548060200260200160405190810160405280929190818152602001828054801561024957602002820191905f5260205f20905b815481526020019060010190808311610235575b50505050509050919050565b6002602052815f5260405f20818154811061026e575f80fd5b905f5260205f20015f91509150505481565b5f5481565b5f81116102c7576040517f08c379a00000000000000000000000000000000000000000000000000000000081526004016102be906110c5565b60405180910390fd5b5f5f8154809291906102d890611110565b91905055506040518060c001604052805f5481526020018381526020018281526020013373ffffffffffffffffffffffffffffffffffffffff1681526020013373ffffffffffffffffffffffffffffffffffffffff1681526020015f151581525060015f5f5481526020019081526020015f205f820151815f015560208201518160010190816103689190611354565b50604082015181600201556060820151816003015f6101000a81548173ffffffffffffffffffffffffffffffffffffffff021916908373ffffffffffffffffffffffffffffffffffffffff1602179055506080820151816004015f6101000a81548173ffffffffffffffffffffffffffffffffffffffff021916908373ffffffffffffffffffffffffffffffffffffffff16021790555060a08201518160040160146101000a81548160ff02191690831515021790555090505060025f3373ffffffffffffffffffffffffffffffffffffffff1673ffffffffffffffffffffffffffffffffffffffff1681526020019081526020015f205f54908060018154018082558091505060019003905f5260205f20015f90919091909150557f16244e47af8a7d2c923faa2cab44315c0514c7aa830682bbb9cc8f0d37ad75485f548383336040516104ba9493929190611423565b60405180910390a15050565b5f60015f8481526020019081526020015f2090505f831180156104ea57505f548311155b610529576040517f08c379a0000000000000000000000000000000000000000000000000000000008152600401610520906114b7565b60405180910390fd5b806004015f9054906101000a900473ffffffffffffffffffffffffffffffffffffffff1673ffffffffffffffffffffffffffffffffffffffff163373ffffffffffffffffffffffffffffffffffffffff16146105ba576040517f08c379a00000000000000000000000000000000000000000000000000000000081526004016105b19061151f565b60405180910390fd5b6105c5833384610979565b505050565b6001602052805f5260405f205f91509050805f0154908060010180546105ef90611184565b80601f016020809104026020016040519081016040528092919081815260200182805461061b90611184565b80156106665780601f1061063d57610100808354040283529160200191610666565b820191905f5260205f20905b81548152906001019060200180831161064957829003601f168201915b505050505090806002015490806003015f9054906101000a900473ffffffffffffffffffffffffffffffffffffffff1690806004015f9054906101000a900473ffffffffffffffffffffffffffffffffffffffff16908060040160149054906101000a900460ff16905086565b5f60015f8381526020019081526020015f2090505f821180156106f757505f548211155b610736576040517f08c379a000000000000000000000000000000000000000000000000000000000815260040161072d906114b7565b60405180910390fd5b8060020154341461077c576040517f08c379a000000000000000000000000000000000000000000000000000000000815260040161077390611587565b60405180910390fd5b8060040160149054906101000a900460ff16156107ce576040517f08c379a00000000000000000000000000000000000000000000000000000000081526004016107c5906115ef565b60405180910390fd5b806003015f9054906101000a900473ffffffffffffffffffffffffffffffffffffffff1673ffffffffffffffffffffffffffffffffffffffff163373ffffffffffffffffffffffffffffffffffffffff160361085f576040517f08c379a000000000000000000000000000000000000000000000000000000000815260040161085690611657565b60405180910390fd5b60018160040160146101000a81548160ff021916908315150217905550806003015f9054906101000a900473ffffffffffffffffffffffffffffffffffffffff1673ffffffffffffffffffffffffffffffffffffffff166108fc3490811502906040515f60405180830381858888f193505050501580156108e2573d5f5f3e3d5ffd5b5061091182826003015f9054906101000a900473ffffffffffffffffffffffffffffffffffffffff1633610979565b7f04ddd54c6b746e69ba87f862311f7670bd1d7276846778ac81cd38747b27a74682826003015f9054906101000a900473ffffffffffffffffffffffffffffffffffffffff1633846002015460405161096d94939291906116c7565b60405180910390a15050565b5f60015f8581526020019081526020015f20905081816004015f6101000a81548173ffffffffffffffffffffffffffffffffffffffff021916908373ffffffffffffffffffffffffffffffffffffffff1602179055505f60025f8573ffffffffffffffffffffffffffffffffffffffff1673ffffffffffffffffffffffffffffffffffffffff1681526020019081526020015f2090505f5f90505b8180549050811015610ac35785828281548110610a3457610a3361170a565b5b905f5260205f20015403610ab6578160018380549050610a549190611737565b81548110610a6557610a6461170a565b5b905f5260205f200154828281548110610a8157610a8061170a565b5b905f5260205f20018190555081805480610a9e57610a9d61176a565b5b600190038181905f5260205f20015f90559055610ac3565b8080600101915050610a14565b5060025f8473ffffffffffffffffffffffffffffffffffffffff1673ffffffffffffffffffffffffffffffffffffffff1681526020019081526020015f2085908060018154018082558091505060019003905f5260205f20015f90919091909150557f9d0353aeb19b9952d7b54a1f8427105b8885d62f9c4e04d82cca517abe142f51858585604051610b5893929190611797565b60405180910390a15050505050565b5f604051905090565b5f5ffd5b5f5ffd5b5f73ffffffffffffffffffffffffffffffffffffffff82169050919050565b5f610ba182610b78565b9050919050565b610bb181610b97565b8114610bbb575f5ffd5b50565b5f81359050610bcc81610ba8565b92915050565b5f60208284031215610be757610be6610b70565b5b5f610bf484828501610bbe565b91505092915050565b5f81519050919050565b5f82825260208201905092915050565b5f819050602082019050919050565b5f819050919050565b610c3881610c26565b82525050565b5f610c498383610c2f565b60208301905092915050565b5f602082019050919050565b5f610c6b82610bfd565b610c758185610c07565b9350610c8083610c17565b805f5b83811015610cb0578151610c978882610c3e565b9750610ca283610c55565b925050600181019050610c83565b5085935050505092915050565b5f6020820190508181035f830152610cd58184610c61565b905092915050565b610ce681610c26565b8114610cf0575f5ffd5b50565b5f81359050610d0181610cdd565b92915050565b5f5f60408385031215610d1d57610d1c610b70565b5b5f610d2a85828601610bbe565b9250506020610d3b85828601610cf3565b9150509250929050565b610d4e81610c26565b82525050565b5f602082019050610d675f830184610d45565b92915050565b5f5ffd5b5f5ffd5b5f601f19601f8301169050919050565b7f4e487b71000000000000000000000000000000000000000000000000000000005f52604160045260245ffd5b610dbb82610d75565b810181811067ffffffffffffffff82111715610dda57610dd9610d85565b5b80604052505050565b5f610dec610b67565b9050610df88282610db2565b919050565b5f67ffffffffffffffff821115610e1757610e16610d85565b5b610e2082610d75565b9050602081019050919050565b828183375f83830152505050565b5f610e4d610e4884610dfd565b610de3565b905082815260208101848484011115610e6957610e68610d71565b5b610e74848285610e2d565b509392505050565b5f82601f830112610e9057610e8f610d6d565b5b8135610ea0848260208601610e3b565b91505092915050565b5f5f60408385031215610ebf57610ebe610b70565b5b5f83013567ffffffffffffffff811115610edc57610edb610b74565b5b610ee885828601610e7c565b9250506020610ef985828601610cf3565b9150509250929050565b5f5f60408385031215610f1957610f18610b70565b5b5f610f2685828601610cf3565b9250506020610f3785828601610bbe565b9150509250929050565b5f60208284031215610f5657610f55610b70565b5b5f610f6384828501610cf3565b91505092915050565b5f81519050919050565b5f82825260208201905092915050565b8281835e5f83830152505050565b5f610f9e82610f6c565b610fa88185610f76565b9350610fb8818560208601610f86565b610fc181610d75565b840191505092915050565b5f610fd682610b78565b9050919050565b610fe681610fcc565b82525050565b610ff581610b97565b82525050565b5f8115159050919050565b61100f81610ffb565b82525050565b5f60c0820190506110285f830189610d45565b818103602083015261103a8188610f94565b90506110496040830187610d45565b6110566060830186610fdd565b6110636080830185610fec565b61107060a0830184611006565b979650505050505050565b7f5072696365206d7573742062652067726561746572207468616e207a65726f005f82015250565b5f6110af601f83610f76565b91506110ba8261107b565b602082019050919050565b5f6020820190508181035f8301526110dc816110a3565b9050919050565b7f4e487b71000000000000000000000000000000000000000000000000000000005f52601160045260245ffd5b5f61111a82610c26565b91507fffffffffffffffffffffffffffffffffffffffffffffffffffffffffffffffff820361114c5761114b6110e3565b5b600182019050919050565b7f4e487b71000000000000000000000000000000000000000000000000000000005f52602260045260245ffd5b5f600282049050600182168061119b57607f821691505b6020821081036111ae576111ad611157565b5b50919050565b5f819050815f5260205f209050919050565b5f6020601f8301049050919050565b5f82821b905092915050565b5f600883026112107fffffffffffffffffffffffffffffffffffffffffffffffffffffffffffffffff826111d5565b61121a86836111d5565b95508019841693508086168417925050509392505050565b5f819050919050565b5f61125561125061124b84610c26565b611232565b610c26565b9050919050565b5f819050919050565b61126e8361123b565b61128261127a8261125c565b8484546111e1565b825550505050565b5f5f905090565b61129961128a565b6112a4818484611265565b505050565b5b818110156112c7576112bc5f82611291565b6001810190506112aa565b5050565b601f82111561130c576112dd816111b4565b6112e6846111c6565b810160208510156112f5578190505b611309611301856111c6565b8301826112a9565b50505b505050565b5f82821c905092915050565b5f61132c5f1984600802611311565b1980831691505092915050565b5f611344838361131d565b9150826002028217905092915050565b61135d82610f6c565b67ffffffffffffffff81111561137657611375610d85565b5b6113808254611184565b61138b8282856112cb565b5f60209050601f8311600181146113bc575f84156113aa578287015190505b6113b48582611339565b86555061141b565b601f1984166113ca866111b4565b5f5b828110156113f1578489015182556001820191506020850194506020810190506113cc565b8683101561140e578489015161140a601f89168261131d565b8355505b6001600288020188555050505b505050505050565b5f6080820190506114365f830187610d45565b81810360208301526114488186610f94565b90506114576040830185610d45565b6114646060830184610fec565b95945050505050565b7f4974656d20646f6573206e6f74206578697374000000000000000000000000005f82015250565b5f6114a1601383610f76565b91506114ac8261146d565b602082019050919050565b5f6020820190508181035f8301526114ce81611495565b9050919050565b7f596f7520646f206e6f74206f776e2074686973206974656d00000000000000005f82015250565b5f611509601883610f76565b9150611514826114d5565b602082019050919050565b5f6020820190508181035f830152611536816114fd565b9050919050565b7f496e636f727265637420707269636500000000000000000000000000000000005f82015250565b5f611571600f83610f76565b915061157c8261153d565b602082019050919050565b5f6020820190508181035f83015261159e81611565565b9050919050565b7f4974656d20616c726561647920736f6c640000000000000000000000000000005f82015250565b5f6115d9601183610f76565b91506115e4826115a5565b602082019050919050565b5f6020820190508181035f830152611606816115cd565b9050919050565b7f53656c6c65722063616e6e6f7420627579207468656972206f776e206974656d5f82015250565b5f611641602083610f76565b915061164c8261160d565b602082019050919050565b5f6020820190508181035f83015261166e81611635565b9050919050565b5f61168f61168a61168584610b78565b611232565b610b78565b9050919050565b5f6116a082611675565b9050919050565b5f6116b182611696565b9050919050565b6116c1816116a7565b82525050565b5f6080820190506116da5f830187610d45565b6116e760208301866116b8565b6116f46040830185610fec565b6117016060830184610d45565b95945050505050565b7f4e487b71000000000000000000000000000000000000000000000000000000005f52603260045260245ffd5b5f61174182610c26565b915061174c83610c26565b9250828203905081811115611764576117636110e3565b5b92915050565b7f4e487b71000000000000000000000000000000000000000000000000000000005f52603160045260245ffd5b5f6060820190506117aa5f830186610d45565b6117b76020830185610fec565b6117c46040830184610fec565b94935050505056fea264697066735822122075774a18ed007a5cdc9cb797897928487a77b3406054f588ed9c0f5077d87a0e64736f6c634300081e0033","linkReferences":{}},"methodIdentifiers":{"getItemsByOwner(address)":"2c67a8e5","itemCount()":"6bfb0d01","items(uint256)":"bfb231d2","listItem(string,uint256)":"8511c937","ownedItems(address,uint256)":"42846534","purchaseItem(uint256)":"d38ea5bf","transferItem(uint256,address)":"a4229101"},"id":17}